{
  "contractName": "Crowdsale",
  "abi": [
    {
      "inputs": [],
      "payable": false,
      "stateMutability": "nonpayable",
      "type": "constructor"
    },
    {
      "payable": true,
      "stateMutability": "payable",
      "type": "fallback"
    },
    {
      "anonymous": false,
      "inputs": [
        {
          "indexed": false,
          "name": "_goalReached",
          "type": "bool"
        },
        {
          "indexed": false,
          "name": "_beneficiary",
          "type": "address"
        },
        {
          "indexed": false,
          "name": "_amount",
          "type": "uint256"
        }
      ],
      "name": "crowdsaleOutcome",
      "type": "event"
    },
    {
      "anonymous": false,
      "inputs": [
        {
          "indexed": false,
          "name": "_to",
          "type": "address"
        },
        {
          "indexed": false,
          "name": "_amount",
          "type": "uint256"
        },
        {
          "indexed": false,
          "name": "isContribution",
          "type": "bool"
        }
      ],
      "name": "fundsTransferred",
      "type": "event"
    },
    {
      "constant": false,
      "inputs": [
        {
          "name": "_beneficiary",
          "type": "address"
        },
        {
          "name": "_fundingGoal",
          "type": "uint256"
        },
        {
          "name": "_deadline",
          "type": "uint256"
        },
        {
          "name": "_tokenReward",
          "type": "address"
        },
        {
          "name": "_tokenPrice",
          "type": "uint256"
        }
      ],
      "name": "initialize",
      "outputs": [],
      "payable": false,
      "stateMutability": "nonpayable",
      "type": "function"
    },
    {
      "constant": false,
      "inputs": [],
      "name": "closeCrowdsale",
      "outputs": [],
      "payable": false,
      "stateMutability": "nonpayable",
      "type": "function"
    },
    {
      "constant": false,
      "inputs": [],
      "name": "safeWithdrawal",
      "outputs": [],
      "payable": false,
      "stateMutability": "nonpayable",
      "type": "function"
    }
  ],
  "bytecode": "0x608060405234801561001057600080fd5b5060011515600060149054906101000a900460ff1615151415151561003157fe5b336000806101000a81548173ffffffffffffffffffffffffffffffffffffffff021916908373ffffffffffffffffffffffffffffffffffffffff1602179055506107cb806100806000396000f300608060405260043610610057576000357c0100000000000000000000000000000000000000000000000000000000900463ffffffff1680631a1ff6c014610157578063983c0a01146101d8578063fd6b7ef8146101ef575b600860009054906101000a900460ff1615151561007357600080fd5b34600760003373ffffffffffffffffffffffffffffffffffffffff1673ffffffffffffffffffffffffffffffffffffffff16815260200190815260200160002060008282540192505081905550346003600082825401925050819055507fb27640dc11928d401b6eade1ddf6636a73e8ed7d0a3a996eb519ba7e2ccd4e0d33600654348115156100ff57fe5b046001604051808473ffffffffffffffffffffffffffffffffffffffff1673ffffffffffffffffffffffffffffffffffffffff16815260200183815260200182151515158152602001935050505060405180910390a1005b34801561016357600080fd5b506101d6600480360381019080803573ffffffffffffffffffffffffffffffffffffffff1690602001909291908035906020019092919080359060200190929190803573ffffffffffffffffffffffffffffffffffffffff16906020019092919080359060200190929190505050610206565b005b3480156101e457600080fd5b506101ed61033d565b005b3480156101fb57600080fd5b5061020461043e565b005b3373ffffffffffffffffffffffffffffffffffffffff166000809054906101000a900473ffffffffffffffffffffffffffffffffffffffff1673ffffffffffffffffffffffffffffffffffffffff1614151561026157600080fd5b60011515600060149054906101000a900460ff1615151415151561028457600080fd5b84600160006101000a81548173ffffffffffffffffffffffffffffffffffffffff021916908373ffffffffffffffffffffffffffffffffffffffff160217905550836002819055508260048190555081600560006101000a81548173ffffffffffffffffffffffffffffffffffffffff021916908373ffffffffffffffffffffffffffffffffffffffff160217905550806006819055506001600060146101000a81548160ff0219169083151502179055505050505050565b600454421015151561034e57600080fd5b600254600354101515610377576001600860016101000a81548160ff0219169083151502179055505b7f84a82f956bf47bb157b3e25b40274f6cb712628849dddb0ed97033bccb0855e3600860019054906101000a900460ff16600160009054906101000a900473ffffffffffffffffffffffffffffffffffffffff1660035460405180841515151581526020018373ffffffffffffffffffffffffffffffffffffffff1673ffffffffffffffffffffffffffffffffffffffff168152602001828152602001935050505060405180910390a16001600860006101000a81548160ff021916908315150217905550565b60011515600860009054906101000a900460ff16151514151561046057600080fd5b600160009054906101000a900473ffffffffffffffffffffffffffffffffffffffff1673ffffffffffffffffffffffffffffffffffffffff163373ffffffffffffffffffffffffffffffffffffffff161480156104d0575060011515600860019054906101000a900460ff161515145b156105af573373ffffffffffffffffffffffffffffffffffffffff166108fc6003549081150290604051600060405180830381858888f19350505050156105ae577fb27640dc11928d401b6eade1ddf6636a73e8ed7d0a3a996eb519ba7e2ccd4e0d600160009054906101000a900473ffffffffffffffffffffffffffffffffffffffff166003546000604051808473ffffffffffffffffffffffffffffffffffffffff1673ffffffffffffffffffffffffffffffffffffffff16815260200183815260200182151515158152602001935050505060405180910390a15b5b600160009054906101000a900473ffffffffffffffffffffffffffffffffffffffff1673ffffffffffffffffffffffffffffffffffffffff163373ffffffffffffffffffffffffffffffffffffffff1614158015610621575060011515600860019054906101000a900460ff16151514155b1561079d573373ffffffffffffffffffffffffffffffffffffffff166108fc600760003373ffffffffffffffffffffffffffffffffffffffff1673ffffffffffffffffffffffffffffffffffffffff168152602001908152602001600020549081150290604051600060405180830381858888f193505050501561079c576000600760003373ffffffffffffffffffffffffffffffffffffffff1673ffffffffffffffffffffffffffffffffffffffff168152602001908152602001600020819055507fb27640dc11928d401b6eade1ddf6636a73e8ed7d0a3a996eb519ba7e2ccd4e0d33600760003373ffffffffffffffffffffffffffffffffffffffff1673ffffffffffffffffffffffffffffffffffffffff168152602001908152602001600020546000604051808473ffffffffffffffffffffffffffffffffffffffff1673ffffffffffffffffffffffffffffffffffffffff16815260200183815260200182151515158152602001935050505060405180910390a15b5b5600a165627a7a72305820fb38d9a282b23bc3e695da9018bf9aea1a54309bc419bf45ce1825afc382430a0029",
  "source": "// To be compiled with compiler versions 0.4 <= v < 0.5\npragma solidity ^0.4.0;\n\n// Interface to the token transfer function.\ninterface Token {\n    function transfer(\n            address _to, \n            uint256 _amount\n        ) external;\n\n}\n\n/**\n * @dev Contract with a beneficiary to receive the funds raised, a funding goal, a \n * deadline, a token to use, a token price in ether and a ledger for the token \n * balances of all investors.\n */\ncontract Crowdsale {\n    // Crowdsale parameters\n    address owner;\n    bool initialized;\n    address beneficiary;\n    uint256 fundingGoal;\n    uint256 fundsRaised;\n    uint256 deadline;\n    address tokenReward;\n    uint256 tokenPrice;\n    mapping(address => uint256) balanceOf;\n\n    // Control variables\n    bool crowdsaleClosed;\n    bool goalAchieved;\n\n    // Event to notify the outcome of the crowdsale\n    event crowdsaleOutcome(\n        bool _goalReached, \n        address _beneficiary, \n        uint256 _amount\n        );\n    // Event to notify that funds have been transferred (Redundant).\n    event fundsTransferred(\n        address _to, \n        uint256 _amount,\n        bool isContribution\n        );\n    \n    /**\n     * @dev Constructor function, which sets up the crowdsale.\n     */\n    constructor() public {\n        assert(initialized != true);\n        owner = msg.sender;\n    }\n    \n    /**\n     * @dev Initialize function, which sets up the crowdsale variables. The \n     * user creating the crowdsale must provide the address to a token contract\n     * with functions to keep track of how many tokens the crowdsale contract\n     * and all the investors have.\n     * @param _beneficiary Address to receive the funds raised if the crowdsale\n     * is successful.\n     * @param _fundingGoal Ether amount to reach in the crowdsale.\n     * @param _deadline Time in minutes to reach the funding goal.\n     * @param _tokenReward Address for the token to use in the crowdsale to \n     * track the amounts invested by each participant.\n     * @param _tokenPrice Ether amount required to buy each crowdsale token from\n     * the crowdsale contract.\n     */\n    function initialize(\n            address _beneficiary,\n            uint256 _fundingGoal, \n            uint256 _deadline, \n            address _tokenReward, \n            uint256 _tokenPrice\n        ) public {\n        require(owner == msg.sender);\n        require(initialized != true);\n        beneficiary = _beneficiary;\n        fundingGoal = _fundingGoal;\n        deadline = _deadline;\n        tokenReward = Token(_tokenReward); \n        tokenPrice = _tokenPrice;\n        initialized = true;\n    }\n    \n    /**\n     * @dev Fallback function - The function without name is the default \n     * function that is executed when someone sends funds to a contract.\n     */\n    function() payable external {\n        require(!crowdsaleClosed);\n        balanceOf[msg.sender] += msg.value;\n        fundsRaised += msg.value;\n        // The transfer function doesn't seem to be imported through the \n        // interface with the right number of arguments.\n        //tokenReward.transfer(msg.sender, msg.value / tokenPrice);\n        emit fundsTransferred(msg.sender, msg.value / tokenPrice, true);\n    } \n    \n    /**\n     * @dev Modifier that checks that a function is being called after the \n     * deadline.\n     */\n    modifier afterDeadline() {\n        require (now >= deadline);\n        _;\n    }\n    \n    /**\n     * @dev Function that checks if the goal or time limit has been reached and \n     * emits the appropriate event.\n     */\n    function closeCrowdsale() afterDeadline public {\n        if (fundsRaised >= fundingGoal) goalAchieved = true;\n        emit crowdsaleOutcome(goalAchieved, beneficiary, fundsRaised);\n        crowdsaleClosed = true;\n    }\n    \n    /**\n     * @dev Function that allows the investors to recover their funding if the \n     * deadline was passed without reaching the funding goal. Alternatively it \n     * allows the beneficiary to retrieve the funds if the deadline was passed \n     * and the funding goal achieved.\n     */ \n    function safeWithdrawal() external {\n        require (crowdsaleClosed == true);\n        if (\n            msg.sender == beneficiary && \n            goalAchieved == true\n            ) {\n            if (msg.sender.send(fundsRaised)) {\n                emit fundsTransferred(beneficiary, fundsRaised, false);\n            }\n        }\n        if (\n            msg.sender != beneficiary && \n            goalAchieved != true\n            ) {\n            // The condition below is unsafe, it should be atomic\n            if (msg.sender.send(balanceOf[msg.sender])) {\n                balanceOf[msg.sender] = 0;\n                emit fundsTransferred(msg.sender, balanceOf[msg.sender], false);\n            }\n        }\n    }\n}\n",
  "sourcePath": "/home/ec2-user/crowdsale/contracts/crowdfund.sol",
  "compiler": {
    "name": "solc",
    "version": "0.4.24+commit.e67f0147.Emscripten.clang"
  },
  "schemaVersion": "2.0.1",
  "updatedAt": "2018-06-29T06:48:32.881Z"
}