{
  "contractName": "Token",
  "abi": [
    {
      "constant": true,
      "inputs": [],
      "name": "name",
      "outputs": [
        {
          "name": "",
          "type": "string"
        }
      ],
      "payable": false,
      "stateMutability": "view",
      "type": "function"
    },
    {
      "constant": true,
      "inputs": [],
      "name": "decimals",
      "outputs": [
        {
          "name": "",
          "type": "uint8"
        }
      ],
      "payable": false,
      "stateMutability": "view",
      "type": "function"
    },
    {
      "constant": true,
      "inputs": [],
      "name": "symbol",
      "outputs": [
        {
          "name": "",
          "type": "string"
        }
      ],
      "payable": false,
      "stateMutability": "view",
      "type": "function"
    },
    {
      "inputs": [],
      "payable": false,
      "stateMutability": "nonpayable",
      "type": "constructor"
    },
    {
      "anonymous": false,
      "inputs": [
        {
          "indexed": true,
          "name": "_from",
          "type": "address"
        },
        {
          "indexed": true,
          "name": "_to",
          "type": "address"
        },
        {
          "indexed": true,
          "name": "_amount",
          "type": "uint256"
        }
      ],
      "name": "TokenTransfer",
      "type": "event"
    },
    {
      "constant": false,
      "inputs": [
        {
          "name": "_initialSupply",
          "type": "uint256"
        },
        {
          "name": "_name",
          "type": "string"
        },
        {
          "name": "_symbol",
          "type": "string"
        },
        {
          "name": "_decimals",
          "type": "uint8"
        }
      ],
      "name": "initialize",
      "outputs": [],
      "payable": false,
      "stateMutability": "nonpayable",
      "type": "function"
    },
    {
      "constant": false,
      "inputs": [
        {
          "name": "_to",
          "type": "address"
        },
        {
          "name": "_amount",
          "type": "uint256"
        }
      ],
      "name": "transfer",
      "outputs": [],
      "payable": false,
      "stateMutability": "nonpayable",
      "type": "function"
    }
  ],
  "bytecode": "0x6080604052336000806101000a81548173ffffffffffffffffffffffffffffffffffffffff021916908373ffffffffffffffffffffffffffffffffffffffff16021790555034801561005057600080fd5b5060011515600360019054906101000a900460ff1615151415151561007157fe5b336000806101000a81548173ffffffffffffffffffffffffffffffffffffffff021916908373ffffffffffffffffffffffffffffffffffffffff1602179055506107d9806100c06000396000f30060806040526004361061006d576000357c0100000000000000000000000000000000000000000000000000000000900463ffffffff16806306fdde0314610072578063313ce567146101025780638a35c5631461013357806395d89b41146101f9578063a9059cbb14610289575b600080fd5b34801561007e57600080fd5b506100876102d6565b6040518080602001828103825283818151815260200191508051906020019080838360005b838110156100c75780820151818401526020810190506100ac565b50505050905090810190601f1680156100f45780820380516001836020036101000a031916815260200191505b509250505060405180910390f35b34801561010e57600080fd5b50610117610374565b604051808260ff1660ff16815260200191505060405180910390f35b34801561013f57600080fd5b506101f760048036038101908080359060200190929190803590602001908201803590602001908080601f0160208091040260200160405190810160405280939291908181526020018383808284378201915050505050509192919290803590602001908201803590602001908080601f0160208091040260200160405190810160405280939291908181526020018383808284378201915050505050509192919290803560ff169060200190929190505050610387565b005b34801561020557600080fd5b5061020e6104b3565b6040518080602001828103825283818151815260200191508051906020019080838360005b8381101561024e578082015181840152602081019050610233565b50505050905090810190601f16801561027b5780820380516001836020036101000a031916815260200191505b509250505060405180910390f35b34801561029557600080fd5b506102d4600480360381019080803573ffffffffffffffffffffffffffffffffffffffff16906020019092919080359060200190929190505050610551565b005b60018054600181600116156101000203166002900480601f01602080910402602001604051908101604052809291908181526020018280546001816001161561010002031660029004801561036c5780601f106103415761010080835404028352916020019161036c565b820191906000526020600020905b81548152906001019060200180831161034f57829003601f168201915b505050505081565b600360009054906101000a900460ff1681565b60011515600360019054906101000a900460ff161515141515156103aa57600080fd5b3373ffffffffffffffffffffffffffffffffffffffff166000809054906101000a900473ffffffffffffffffffffffffffffffffffffffff1673ffffffffffffffffffffffffffffffffffffffff1614151561040557600080fd5b83600460003373ffffffffffffffffffffffffffffffffffffffff1673ffffffffffffffffffffffffffffffffffffffff16815260200190815260200160002081905550826001908051906020019061045f929190610708565b508160029080519060200190610476929190610708565b5080600360006101000a81548160ff021916908360ff1602179055506001600360016101000a81548160ff02191690831515021790555050505050565b60028054600181600116156101000203166002900480601f0160208091040260200160405190810160405280929190818152602001828054600181600116156101000203166002900480156105495780601f1061051e57610100808354040283529160200191610549565b820191906000526020600020905b81548152906001019060200180831161052c57829003601f168201915b505050505081565b80600460003373ffffffffffffffffffffffffffffffffffffffff1673ffffffffffffffffffffffffffffffffffffffff168152602001908152602001600020541015151561059f57600080fd5b80600460003373ffffffffffffffffffffffffffffffffffffffff1673ffffffffffffffffffffffffffffffffffffffff1681526020019081526020016000205403600460003373ffffffffffffffffffffffffffffffffffffffff1673ffffffffffffffffffffffffffffffffffffffff1681526020019081526020016000208190555080600460008473ffffffffffffffffffffffffffffffffffffffff1673ffffffffffffffffffffffffffffffffffffffff1681526020019081526020016000205401600460008473ffffffffffffffffffffffffffffffffffffffff1673ffffffffffffffffffffffffffffffffffffffff16815260200190815260200160002081905550808273ffffffffffffffffffffffffffffffffffffffff163373ffffffffffffffffffffffffffffffffffffffff167fd0ed88a3f042c6bbb1e3ea406079b5f2b4b198afccaa535d837f4c63abbc4de660405160405180910390a45050565b828054600181600116156101000203166002900490600052602060002090601f016020900481019282601f1061074957805160ff1916838001178555610777565b82800160010185558215610777579182015b8281111561077657825182559160200191906001019061075b565b5b5090506107849190610788565b5090565b6107aa91905b808211156107a657600081600090555060010161078e565b5090565b905600a165627a7a72305820ce5ef8a2d10377ff89871f8e4bbba0e26f2389400d9fee579ae8f86582ad6ad40029",
  "source": "// To be compiled with compiler versions 0.4 <= v < 0.5\npragma solidity ^0.4.0;\n\ncontract Token {\n    /* Public variables of the token.*/\n    address owner = msg.sender;\n    string public name;\n    string public symbol;\n    uint8 public decimals;\n    bool initialized;\n    \n    /* This creates an array with all balances.*/\n    mapping(address => uint256) balances;\n    \n    /**\n     * @dev This generates a public event on the blockchain that will notify \n     * clients of a token transfer.\n     * @param _from - The address sending the tokens\n     * @param _to - The address receiving the tokens\n     * @param _amount - The amount of tokens to be transferred\n    */\n    event TokenTransfer(\n        address indexed _from,\n        address indexed _to, \n        uint256 indexed _amount\n        );\n    \n    /**\n     * @dev Builds contract and sets owner.\n     */\n    constructor() public {\n        assert(initialized != true);\n        owner = msg.sender;\n    }\n\n    /**\n     * @dev Initializes contract with initial supply tokens to the creator of \n     * the token.\n     * @param _initialSupply - Tokens created with the contract\n     * @param _name - Token name (e.g. Bitcoin)\n     * @param _symbol - Token symbol (e.g. BTC)\n     * @param _decimals - Minimum token fraction (e.g. 0.001)\n     */\n    function initialize(\n                uint256 _initialSupply,\n                string _name,\n                string _symbol,\n                uint8 _decimals\n            ) public {\n        require(initialized != true);\n        require(owner == msg.sender);\n        balances[msg.sender] = _initialSupply;\n        name = _name;\n        symbol = _symbol;\n        decimals = _decimals;\n        initialized = true;\n    }\n\n    /**\n     * @dev Send tokens. Note that all addresses exist, so it is possible to \n     * send tokens to an address that no one has claimed yet, and that tokens \n     * sent to an address for which no one knows the private key are basically \n     * irrecoverable.\n     * @param _to - The address receiving the tokens\n     * @param _amount - The amount of tokens to be transferred\n     */\n    function transfer(\n                address _to, \n                uint256 _amount\n            ) public {\n        require(balances[msg.sender] >= _amount);\n        balances[msg.sender] = balances[msg.sender] - _amount;  // Use SafeMath\n        balances[_to] = balances[_to] + _amount;  // Use SafeMath\n        emit TokenTransfer(msg.sender, _to, _amount);\n    }\n}\n",
  "sourcePath": "/home/ec2-user/truffle-crowdsale/contracts/token.sol",
  "compiler": {
    "name": "solc",
    "version": "0.4.24+commit.e67f0147.Emscripten.clang"
  },
  "schemaVersion": "2.0.1",
  "updatedAt": "2018-06-28T15:42:44.294Z"
}