{
  "contractName": "Token",
  "abi": [
    {
      "constant": true,
      "inputs": [],
      "name": "name",
      "outputs": [
        {
          "name": "",
          "type": "string"
        }
      ],
      "payable": false,
      "stateMutability": "view",
      "type": "function"
    },
    {
      "constant": true,
      "inputs": [],
      "name": "decimals",
      "outputs": [
        {
          "name": "",
          "type": "uint8"
        }
      ],
      "payable": false,
      "stateMutability": "view",
      "type": "function"
    },
    {
      "constant": true,
      "inputs": [],
      "name": "owner",
      "outputs": [
        {
          "name": "",
          "type": "address"
        }
      ],
      "payable": false,
      "stateMutability": "view",
      "type": "function"
    },
    {
      "constant": true,
      "inputs": [],
      "name": "symbol",
      "outputs": [
        {
          "name": "",
          "type": "string"
        }
      ],
      "payable": false,
      "stateMutability": "view",
      "type": "function"
    },
    {
      "inputs": [],
      "payable": false,
      "stateMutability": "nonpayable",
      "type": "constructor"
    },
    {
      "anonymous": false,
      "inputs": [
        {
          "indexed": true,
          "name": "_from",
          "type": "address"
        },
        {
          "indexed": true,
          "name": "_to",
          "type": "address"
        },
        {
          "indexed": true,
          "name": "_amount",
          "type": "uint256"
        }
      ],
      "name": "TokenTransfer",
      "type": "event"
    },
    {
      "constant": false,
      "inputs": [
        {
          "name": "_initialSupply",
          "type": "uint256"
        },
        {
          "name": "_name",
          "type": "string"
        },
        {
          "name": "_symbol",
          "type": "string"
        },
        {
          "name": "_decimals",
          "type": "uint8"
        }
      ],
      "name": "initialize",
      "outputs": [],
      "payable": false,
      "stateMutability": "nonpayable",
      "type": "function"
    },
    {
      "constant": false,
      "inputs": [
        {
          "name": "_to",
          "type": "address"
        },
        {
          "name": "_amount",
          "type": "uint256"
        }
      ],
      "name": "transfer",
      "outputs": [],
      "payable": false,
      "stateMutability": "nonpayable",
      "type": "function"
    },
    {
      "constant": true,
      "inputs": [
        {
          "name": "_user",
          "type": "address"
        }
      ],
      "name": "getBalanceOf",
      "outputs": [
        {
          "name": "",
          "type": "uint256"
        }
      ],
      "payable": false,
      "stateMutability": "view",
      "type": "function"
    }
  ],
  "bytecode": "0x6080604052336000806101000a81548173ffffffffffffffffffffffffffffffffffffffff021916908373ffffffffffffffffffffffffffffffffffffffff16021790555034801561005057600080fd5b5060011515600360019054906101000a900460ff1615151415151561007157fe5b336000806101000a81548173ffffffffffffffffffffffffffffffffffffffff021916908373ffffffffffffffffffffffffffffffffffffffff160217905550610960806100c06000396000f300608060405260043610610083576000357c0100000000000000000000000000000000000000000000000000000000900463ffffffff16806306fdde0314610088578063313ce567146101185780638a35c563146101495780638da5cb5b1461020f57806395d89b41146102665780639b96eece146102f6578063a9059cbb1461034d575b600080fd5b34801561009457600080fd5b5061009d61039a565b6040518080602001828103825283818151815260200191508051906020019080838360005b838110156100dd5780820151818401526020810190506100c2565b50505050905090810190601f16801561010a5780820380516001836020036101000a031916815260200191505b509250505060405180910390f35b34801561012457600080fd5b5061012d610438565b604051808260ff1660ff16815260200191505060405180910390f35b34801561015557600080fd5b5061020d60048036038101908080359060200190929190803590602001908201803590602001908080601f0160208091040260200160405190810160405280939291908181526020018383808284378201915050505050509192919290803590602001908201803590602001908080601f0160208091040260200160405190810160405280939291908181526020018383808284378201915050505050509192919290803560ff16906020019092919050505061044b565b005b34801561021b57600080fd5b50610224610577565b604051808273ffffffffffffffffffffffffffffffffffffffff1673ffffffffffffffffffffffffffffffffffffffff16815260200191505060405180910390f35b34801561027257600080fd5b5061027b61059c565b6040518080602001828103825283818151815260200191508051906020019080838360005b838110156102bb5780820151818401526020810190506102a0565b50505050905090810190601f1680156102e85780820380516001836020036101000a031916815260200191505b509250505060405180910390f35b34801561030257600080fd5b50610337600480360381019080803573ffffffffffffffffffffffffffffffffffffffff16906020019092919050505061063a565b6040518082815260200191505060405180910390f35b34801561035957600080fd5b50610398600480360381019080803573ffffffffffffffffffffffffffffffffffffffff16906020019092919080359060200190929190505050610683565b005b60018054600181600116156101000203166002900480601f0160208091040260200160405190810160405280929190818152602001828054600181600116156101000203166002900480156104305780601f1061040557610100808354040283529160200191610430565b820191906000526020600020905b81548152906001019060200180831161041357829003601f168201915b505050505081565b600360009054906101000a900460ff1681565b60011515600360019054906101000a900460ff1615151415151561046e57600080fd5b3373ffffffffffffffffffffffffffffffffffffffff166000809054906101000a900473ffffffffffffffffffffffffffffffffffffffff1673ffffffffffffffffffffffffffffffffffffffff161415156104c957600080fd5b83600460003373ffffffffffffffffffffffffffffffffffffffff1673ffffffffffffffffffffffffffffffffffffffff16815260200190815260200160002081905550826001908051906020019061052392919061088f565b50816002908051906020019061053a92919061088f565b5080600360006101000a81548160ff021916908360ff1602179055506001600360016101000a81548160ff02191690831515021790555050505050565b6000809054906101000a900473ffffffffffffffffffffffffffffffffffffffff1681565b60028054600181600116156101000203166002900480601f0160208091040260200160405190810160405280929190818152602001828054600181600116156101000203166002900480156106325780601f1061060757610100808354040283529160200191610632565b820191906000526020600020905b81548152906001019060200180831161061557829003601f168201915b505050505081565b6000600460008373ffffffffffffffffffffffffffffffffffffffff1673ffffffffffffffffffffffffffffffffffffffff168152602001908152602001600020549050919050565b80600460003373ffffffffffffffffffffffffffffffffffffffff1673ffffffffffffffffffffffffffffffffffffffff16815260200190815260200160002054101515156106d157600080fd5b61072381600460003373ffffffffffffffffffffffffffffffffffffffff1673ffffffffffffffffffffffffffffffffffffffff1681526020019081526020016000205461085a90919063ffffffff16565b600460003373ffffffffffffffffffffffffffffffffffffffff1673ffffffffffffffffffffffffffffffffffffffff168152602001908152602001600020819055506107b881600460008573ffffffffffffffffffffffffffffffffffffffff1673ffffffffffffffffffffffffffffffffffffffff1681526020019081526020016000205461087390919063ffffffff16565b600460008473ffffffffffffffffffffffffffffffffffffffff1673ffffffffffffffffffffffffffffffffffffffff16815260200190815260200160002081905550808273ffffffffffffffffffffffffffffffffffffffff163373ffffffffffffffffffffffffffffffffffffffff167fd0ed88a3f042c6bbb1e3ea406079b5f2b4b198afccaa535d837f4c63abbc4de660405160405180910390a45050565b600082821115151561086857fe5b818303905092915050565b6000818301905082811015151561088657fe5b80905092915050565b828054600181600116156101000203166002900490600052602060002090601f016020900481019282601f106108d057805160ff19168380011785556108fe565b828001600101855582156108fe579182015b828111156108fd5782518255916020019190600101906108e2565b5b50905061090b919061090f565b5090565b61093191905b8082111561092d576000816000905550600101610915565b5090565b905600a165627a7a72305820de1ba1904b7e1d71b48471b54bd828b48f9d062255c62644bdc8e609ab09c9890029",
  "source": "// To be compiled with compiler versions 0.4.24 <= v < 0.5\npragma solidity ^0.4.24;\n\nimport \"./SafeMath.sol\";\n\ncontract Token {\n    /* Operator overloads */\n    using SafeMath for uint;\n    using SafeMath for uint8;\n    using SafeMath for uint16;\n    using SafeMath for uint32;\n    using SafeMath for uint64;\n    using SafeMath for uint128;\n    using SafeMath for uint256;\n\n    /* Public variables of the token.*/\n    address public owner = msg.sender;\n    string public name;\n    string public symbol;\n    uint8 public decimals;\n    bool private initialized;\n\n    /* This creates an array with all balances.*/\n    mapping(address => uint256) private balances;\n\n    /**\n     * @dev Builds contract and sets owner.\n     */\n    constructor() public {\n        assert(initialized != true);\n        owner = msg.sender;\n    }\n\n    /**\n     * @dev This generates a public event on the blockchain that will notify\n     * clients of a token transfer.\n     * @param _from - The address sending the tokens\n     * @param _to - The address receiving the tokens\n     * @param _amount - The amount of tokens to be transferred\n    */\n    event TokenTransfer(\n        address indexed _from,\n        address indexed _to,\n        uint256 indexed _amount\n        );\n\n    /**\n     * @dev Initializes contract with initial supply tokens to the creator of\n     * the token.\n     * @param _initialSupply - Tokens created with the contract\n     * @param _name - Token name (e.g. Bitcoin)\n     * @param _symbol - Token symbol (e.g. BTC)\n     * @param _decimals - Minimum token fraction (e.g. 0.001)\n     */\n    function initialize(\n                uint256 _initialSupply,\n                string _name,\n                string _symbol,\n                uint8 _decimals\n            ) public {\n        require(initialized != true);\n        require(owner == msg.sender);\n        balances[msg.sender] = _initialSupply;\n        name = _name;\n        symbol = _symbol;\n        decimals = _decimals;\n        initialized = true;\n    }\n\n    /**\n     * @dev Send tokens. Note that all addresses exist, so it is possible to\n     * send tokens to an address that no one has claimed yet, and that tokens\n     * sent to an address for which no one knows the private key are basically\n     * irrecoverable.\n     * @param _to - The address receiving the tokens\n     * @param _amount - The amount of tokens to be transferred\n     */\n    function transfer(\n                address _to,\n                uint256 _amount\n            ) public {\n        require(balances[msg.sender] >= _amount);\n        balances[msg.sender] = balances[msg.sender].sub(_amount);\n        balances[_to] = balances[_to].add(_amount);\n        emit TokenTransfer(msg.sender, _to, _amount);\n    }\n\n    /**\n     * @dev Return the token balance for a specific user.\n     * @param _user - The address to return the balance of\n     */\n    function getBalanceOf(\n                address _user\n            ) public view returns (uint256) {\n        return balances[_user];\n    }\n}\n",
  "sourcePath": "/home/alberto/Blockchain/crowdsale/contracts/Token.sol",
  "compiler": {
    "name": "solc",
    "version": "0.4.24+commit.e67f0147.Emscripten.clang"
  },
  "schemaVersion": "2.0.1",
  "updatedAt": "2018-06-29T15:07:19.865Z"
}